:100000000C942A000C9434000C9434000C943400AA
:100010000C9434000C9434000C9434000C94340090
:100020000C9434000C9434000C9434000C94340080
:100030000C9434000C9434000C9434000C94340070
:100040000C9434000C9434000C9434000C94340060
:100050000C94340011241FBECFE5D4E0DEBFCDBF29
:100060000E9436000C944C000C940000899A919ADE
:100070008A9A929A52E029E130E044E082B38527DF
:1000800082BB8FEF9FEFF9013197F1F70197D9F715
:0C00900082B3842782BBF2CFF894FFCF2C
:00000001FF
